{
  "_format": "hh-sol-artifact-1",
  "contractName": "BattleshipGame",
  "sourceName": "contracts/BattleshipGame.sol",
  "abi": [
    {
      "inputs": [
        {
          "internalType": "address",
          "name": "_forwarder",
          "type": "address"
        },
        {
          "internalType": "address",
          "name": "_bv",
          "type": "address"
        },
        {
          "internalType": "address",
          "name": "_sv",
          "type": "address"
        }
      ],
      "stateMutability": "nonpayable",
      "type": "constructor"
    },
    {
      "anonymous": false,
      "inputs": [
        {
          "indexed": false,
          "internalType": "uint256",
          "name": "_nonce",
          "type": "uint256"
        },
        {
          "indexed": false,
          "internalType": "address",
          "name": "_by",
          "type": "address"
        }
      ],
      "name": "Joined",
      "type": "event"
    },
    {
      "anonymous": false,
      "inputs": [
        {
          "indexed": false,
          "internalType": "bool",
          "name": "hit",
          "type": "bool"
        },
        {
          "indexed": false,
          "internalType": "uint256",
          "name": "_game",
          "type": "uint256"
        }
      ],
      "name": "Report",
      "type": "event"
    },
    {
      "anonymous": false,
      "inputs": [
        {
          "indexed": false,
          "internalType": "uint8",
          "name": "_x",
          "type": "uint8"
        },
        {
          "indexed": false,
          "internalType": "uint8",
          "name": "_y",
          "type": "uint8"
        },
        {
          "indexed": false,
          "internalType": "uint256",
          "name": "_game",
          "type": "uint256"
        }
      ],
      "name": "Shot",
      "type": "event"
    },
    {
      "anonymous": false,
      "inputs": [
        {
          "indexed": false,
          "internalType": "uint256",
          "name": "_nonce",
          "type": "uint256"
        },
        {
          "indexed": false,
          "internalType": "address",
          "name": "_by",
          "type": "address"
        }
      ],
      "name": "Started",
      "type": "event"
    },
    {
      "anonymous": false,
      "inputs": [
        {
          "indexed": false,
          "internalType": "address",
          "name": "_winner",
          "type": "address"
        },
        {
          "indexed": false,
          "internalType": "uint256",
          "name": "_nonce",
          "type": "uint256"
        },
        {
          "indexed": false,
          "internalType": "address",
          "name": "_by",
          "type": "address"
        }
      ],
      "name": "Won",
      "type": "event"
    },
    {
      "inputs": [],
      "name": "HIT_MAX",
      "outputs": [
        {
          "internalType": "uint256",
          "name": "",
          "type": "uint256"
        }
      ],
      "stateMutability": "view",
      "type": "function"
    },
    {
      "inputs": [
        {
          "internalType": "uint256",
          "name": "_game",
          "type": "uint256"
        },
        {
          "internalType": "uint256[2]",
          "name": "_shot",
          "type": "uint256[2]"
        }
      ],
      "name": "firstTurn",
      "outputs": [],
      "stateMutability": "nonpayable",
      "type": "function"
    },
    {
      "inputs": [],
      "name": "gameIndex",
      "outputs": [
        {
          "internalType": "uint256",
          "name": "",
          "type": "uint256"
        }
      ],
      "stateMutability": "view",
      "type": "function"
    },
    {
      "inputs": [
        {
          "internalType": "uint256",
          "name": "_game",
          "type": "uint256"
        }
      ],
      "name": "gameState",
      "outputs": [
        {
          "internalType": "address[2]",
          "name": "_participants",
          "type": "address[2]"
        },
        {
          "internalType": "uint256[2]",
          "name": "_boards",
          "type": "uint256[2]"
        },
        {
          "internalType": "uint256",
          "name": "_turnNonce",
          "type": "uint256"
        },
        {
          "internalType": "uint256[2]",
          "name": "_hitNonce",
          "type": "uint256[2]"
        },
        {
          "internalType": "address",
          "name": "_winner",
          "type": "address"
        }
      ],
      "stateMutability": "view",
      "type": "function"
    },
    {
      "inputs": [
        {
          "internalType": "uint256",
          "name": "",
          "type": "uint256"
        }
      ],
      "name": "games",
      "outputs": [
        {
          "internalType": "uint256",
          "name": "nonce",
          "type": "uint256"
        },
        {
          "internalType": "address",
          "name": "winner",
          "type": "address"
        }
      ],
      "stateMutability": "view",
      "type": "function"
    },
    {
      "inputs": [
        {
          "internalType": "address",
          "name": "forwarder",
          "type": "address"
        }
      ],
      "name": "isTrustedForwarder",
      "outputs": [
        {
          "internalType": "bool",
          "name": "",
          "type": "bool"
        }
      ],
      "stateMutability": "view",
      "type": "function"
    },
    {
      "inputs": [
        {
          "internalType": "uint256",
          "name": "_game",
          "type": "uint256"
        },
        {
          "internalType": "uint256",
          "name": "_boardHash",
          "type": "uint256"
        },
        {
          "internalType": "uint256[2]",
          "name": "a",
          "type": "uint256[2]"
        },
        {
          "internalType": "uint256[2]",
          "name": "b_0",
          "type": "uint256[2]"
        },
        {
          "internalType": "uint256[2]",
          "name": "b_1",
          "type": "uint256[2]"
        },
        {
          "internalType": "uint256[2]",
          "name": "c",
          "type": "uint256[2]"
        }
      ],
      "name": "joinGame",
      "outputs": [],
      "stateMutability": "nonpayable",
      "type": "function"
    },
    {
      "inputs": [
        {
          "internalType": "uint256",
          "name": "_boardHash",
          "type": "uint256"
        },
        {
          "internalType": "uint256[2]",
          "name": "a",
          "type": "uint256[2]"
        },
        {
          "internalType": "uint256[2]",
          "name": "b_0",
          "type": "uint256[2]"
        },
        {
          "internalType": "uint256[2]",
          "name": "b_1",
          "type": "uint256[2]"
        },
        {
          "internalType": "uint256[2]",
          "name": "c",
          "type": "uint256[2]"
        }
      ],
      "name": "newGame",
      "outputs": [],
      "stateMutability": "nonpayable",
      "type": "function"
    },
    {
      "inputs": [
        {
          "internalType": "address",
          "name": "",
          "type": "address"
        }
      ],
      "name": "playing",
      "outputs": [
        {
          "internalType": "uint256",
          "name": "",
          "type": "uint256"
        }
      ],
      "stateMutability": "view",
      "type": "function"
    },
    {
      "inputs": [
        {
          "internalType": "uint256",
          "name": "_game",
          "type": "uint256"
        },
        {
          "internalType": "bool",
          "name": "_hit",
          "type": "bool"
        },
        {
          "internalType": "uint256[2]",
          "name": "_next",
          "type": "uint256[2]"
        },
        {
          "internalType": "uint256[2]",
          "name": "a",
          "type": "uint256[2]"
        },
        {
          "internalType": "uint256[2]",
          "name": "b_0",
          "type": "uint256[2]"
        },
        {
          "internalType": "uint256[2]",
          "name": "b_1",
          "type": "uint256[2]"
        },
        {
          "internalType": "uint256[2]",
          "name": "c",
          "type": "uint256[2]"
        }
      ],
      "name": "turn",
      "outputs": [],
      "stateMutability": "nonpayable",
      "type": "function"
    }
  ],
  "bytecode": "0x60806040523480156200001157600080fd5b506040516200165e3803806200165e833981016040819052620000349162000094565b600080546001600160a01b039485166001600160a01b031991821617909155600480549385169382169390931790925560058054919093169116179055620000de565b80516001600160a01b03811681146200008f57600080fd5b919050565b600080600060608486031215620000aa57600080fd5b620000b58462000077565b9250620000c56020850162000077565b9150620000d56040850162000077565b90509250925092565b61157080620000ee6000396000f3fe608060405234801561001057600080fd5b506004361061009e5760003560e01c80635949202a116100665780635949202a1461018557806387047dd31461019a57806388ae582d146101a2578063a784446e146101b5578063cb0fc6d5146101c857600080fd5b8063117a5b90146100a35780634ac0b22f146100f85780634e0e1a3e146101265780635654a3411461014a578063572b6c0514610153575b600080fd5b6100d66100b13660046110a1565b600260205260009081526040902060048101546009909101546001600160a01b031682565b604080519283526001600160a01b039091166020830152015b60405180910390f35b6101186101063660046110ba565b60036020526000908152604090205481565b6040519081526020016100ef565b6101396101343660046110a1565b6101db565b6040516100ef959493929190611113565b61011860015481565b6101756101613660046110ba565b6000546001600160a01b0391821691161490565b60405190151581526020016100ef565b610198610193366004611201565b6102e5565b005b610118601181565b6101986101b036600461123f565b61052d565b6101986101c33660046112c8565b610a2d565b6101986101d6366004611334565b610cd9565b6101e3611030565b6101eb611030565b60006101f5611030565b600085815260026020819052604080832081518083019283905292909182845b81546001600160a01b0316815260019091019060200180831161021557505050600089815260026020819052604091829020825180840193849052959a5081019350915082845b81548152602001906001019080831161025c575050506000898152600260208190526040918290206004810154835180850194859052969a5098506007019350915082845b8154815260200190600101908083116102a15750505060009889525050600260205260409096206009015494969395929492936001600160a01b0390931692915050565b8180600360006102f3610edb565b6001600160a01b03166001600160a01b0316815260200190815260200160002054146103515760405162461bcd60e51b815260206004820152600860248201526721506c6179696e6760c01b60448201526064015b60405180910390fd5b6000818152600260205260409020600901546001600160a01b0316156103a55760405162461bcd60e51b815260206004820152600960248201526821506c617961626c6560b81b6044820152606401610348565b60008181526002602081905260408220600401546103c39190611397565b156103e8576000828152600260205260409020600101546001600160a01b0316610401565b6000828152600260205260409020546001600160a01b03165b9050806001600160a01b0316610415610edb565b6001600160a01b0316146104535760405162461bcd60e51b815260206004820152600560248201526410aa3ab93760d91b6044820152606401610348565b600084815260026020526040902060048101541561049c5760405162461bcd60e51b8152602060048201526006602482015265215475726e3160d01b6044820152606401610348565b6004810154600090815260058201602052604090206104bd9085600261104e565b506004810180549060006104d0836113e5565b909155505083516020808601516040805160ff9485168152939091169183019190915281018690527f79f9773cbc69b790ff553c4b225dafda93079a9bfe2271375d36ce7d812292c2906060015b60405180910390a15050505050565b86806003600061053b610edb565b6001600160a01b03166001600160a01b0316815260200190815260200160002054146105945760405162461bcd60e51b815260206004820152600860248201526721506c6179696e6760c01b6044820152606401610348565b6000818152600260205260409020600901546001600160a01b0316156105e85760405162461bcd60e51b815260206004820152600960248201526821506c617961626c6560b81b6044820152606401610348565b60008181526002602081905260408220600401546106069190611397565b1561062b576000828152600260205260409020600101546001600160a01b0316610644565b6000828152600260205260409020546001600160a01b03165b9050806001600160a01b0316610658610edb565b6001600160a01b0316146106965760405162461bcd60e51b815260206004820152600560248201526410aa3ab93760d91b6044820152606401610348565b600089815260026020526040902060048101546106de5760405162461bcd60e51b815260206004820152600660248201526505475726e3d360d41b6044820152606401610348565b600081600201600283600401546106f59190611397565b60028110610705576107056113b9565b015490506000826005016000600185600401546107229190611400565b8152602081019190915260409081016000208151808301928390529160029082845b815481526020019060010190808311610744575050505050905060008b9050600560009054906101000a90046001600160a01b03166001600160a01b0316635fe8c13b8b60405180604001604052808d81526020018c8152508a6040518060800160405280898152602001886000600281106107c2576107c26113b9565b60200201518152602001886001600281106107df576107df6113b9565b60200201518152602001878152506040518563ffffffff1660e01b815260040161080c949392919061146f565b602060405180830381865afa158015610829573d6000803e3d6000fd5b505050506040513d601f19601f8201168201806040525081019061084d91906114cc565b61088e5760405162461bcd60e51b815260206004820152601260248201527124b73b30b634b2103a3ab93710383937b7b360711b6044820152606401610348565b8b846006016000600187600401546108a69190611400565b81526020810191909152604001600020805460ff19169115159190911790558b1561091157836007016002600186600401546108e29190611400565b6108ec9190611397565b600281106108fc576108fc6113b9565b01805490600061090b836113e5565b91905055505b604080518d15158152602081018f90527f683ddd84855a0e0acca1cca44218f8166de5bb1f03cc18cd1c8d0e4dbf3ac06d910160405180910390a16011846007016002600187600401546109659190611400565b61096f9190611397565b6002811061097f5761097f6113b9565b0154106109945761098f8d610f01565b610a1e565b6004840154600090815260058501602052604090206109b5908c600261104e565b506004840180549060006109c8836113e5565b90915550508a516020808d01516040805160ff9485168152939091169183019190915281018e90527f79f9773cbc69b790ff553c4b225dafda93079a9bfe2271375d36ce7d812292c29060600160405180910390a15b50505050505050505050505050565b60036000610a39610edb565b6001600160a01b0316815260208101919091526040016000205415610a8c5760405162461bcd60e51b81526020600482015260096024820152681499595b9d1c985b9d60ba1b6044820152606401610348565b858015801590610a9e57506001548111155b610ada5760405162461bcd60e51b815260206004820152600d60248201526c6f75742d6f662d626f756e647360981b6044820152606401610348565b6000818152600260205260409020546001600160a01b031615801590610b1857506000818152600260205260408120600101546001600160a01b0316145b610b4c5760405162461bcd60e51b815260206004820152600560248201526410a7b832b760d91b6044820152606401610348565b600480546040805180820182528781526020808201889052825190810183528a815291516343753b4d60e01b81526001600160a01b03909316936343753b4d93610b9b938b93928992016114e9565b602060405180830381865afa158015610bb8573d6000803e3d6000fd5b505050506040513d601f19601f82011682018060405250810190610bdc91906114cc565b610c205760405162461bcd60e51b8152602060048201526015602482015274496e76616c696420426f61726420436f6e6669672160581b6044820152606401610348565b610c28610edb565b60008881526002602052604081206001810180546001600160a01b0319166001600160a01b0394909416939093179092556003918201889055889190610c6c610edb565b6001600160a01b031681526020810191909152604001600020557fc0081eeafa0d002abcd7d58d84b6e688d1526b9c3d915a282212ba08c49a17a787610cb0610edb565b604080519283526001600160a01b0390911660208301520160405180910390a150505050505050565b60036000610ce5610edb565b6001600160a01b0316815260208101919091526040016000205415610d385760405162461bcd60e51b81526020600482015260096024820152681499595b9d1c985b9d60ba1b6044820152606401610348565b6004805460408051808201825286815260208082018790528251908101835289815291516343753b4d60e01b81526001600160a01b03909316936343753b4d93610d87938a93928892016114e9565b602060405180830381865afa158015610da4573d6000803e3d6000fd5b505050506040513d601f19601f82011682018060405250810190610dc891906114cc565b610e0c5760405162461bcd60e51b8152602060048201526015602482015274496e76616c696420426f61726420436f6e6669672160581b6044820152606401610348565b60018054906000610e1c836113e5565b9190505550610e29610edb565b60018054600090815260026020819052604080832080546001600160a01b0319166001600160a01b039690961695909517909455825482529281209092018790555490600390610e77610edb565b6001600160a01b031681526020810191909152604001600020556001547fcb88c87e28a0e0b68deef72d3d3536c607260b8c80944e6117a896f855eed81f90610ebe610edb565b604080519283526001600160a01b0390911660208301520161051e565b600080546001600160a01b0316331415610efc575060131936013560601c90565b503390565b6000818152600260205260409020600781015460111480610f26575060088101546011145b610f5a5760405162461bcd60e51b815260206004820152600560248201526410a7bb32b960d91b6044820152606401610348565b60098101546001600160a01b031615610f9e5760405162461bcd60e51b81526004016103489060208082526004908201526327bb32b960e11b604082015260600190565b6007810154601114610fbd5780600101546001600160a01b0316610fc9565b80546001600160a01b03165b6009820180546001600160a01b0319166001600160a01b039290921691821790556040805182815260208101859052908101919091527f6bcf8a6dacd2be65250e8000b3b3ca55cfc8429fd69e2bf4a34a23fb919226409060600160405180910390a15050565b60405180604001604052806002906020820280368337509192915050565b826002810192821561107c579160200282015b8281111561107c578251825591602001919060010190611061565b5061108892915061108c565b5090565b5b80821115611088576000815560010161108d565b6000602082840312156110b357600080fd5b5035919050565b6000602082840312156110cc57600080fd5b81356001600160a01b03811681146110e357600080fd5b9392505050565b8060005b600281101561110d5781518452602093840193909101906001016110ee565b50505050565b6101008101818760005b60028110156111455781516001600160a01b031683526020928301929091019060010161111d565b50505061115560408301876110ea565b84608083015261116860a08301856110ea565b6001600160a01b039290921660e09190910152949350505050565b600082601f83011261119457600080fd5b6040516040810181811067ffffffffffffffff821117156111c557634e487b7160e01b600052604160045260246000fd5b80604052508060408401858111156111dc57600080fd5b845b818110156111f65780358352602092830192016111de565b509195945050505050565b6000806060838503121561121457600080fd5b823591506112258460208501611183565b90509250929050565b801515811461123c57600080fd5b50565b6000806000806000806000610180888a03121561125b57600080fd5b87359650602088013561126d8161122e565b955061127c8960408a01611183565b945061128b8960808a01611183565b935061129a8960c08a01611183565b92506112aa896101008a01611183565b91506112ba896101408a01611183565b905092959891949750929550565b60008060008060008061014087890312156112e257600080fd5b86359550602087013594506112fa8860408901611183565b93506113098860808901611183565b92506113188860c08901611183565b9150611328886101008901611183565b90509295509295509295565b6000806000806000610120868803121561134d57600080fd5b8535945061135e8760208801611183565b935061136d8760608801611183565b925061137c8760a08801611183565b915061138b8760e08801611183565b90509295509295909350565b6000826113b457634e487b7160e01b600052601260045260246000fd5b500690565b634e487b7160e01b600052603260045260246000fd5b634e487b7160e01b600052601160045260246000fd5b60006000198214156113f9576113f96113cf565b5060010190565b600082821015611412576114126113cf565b500390565b806000805b600280821061142b5750611468565b835186845b8381101561144e578251825260209283019290910190600101611430565b50505060409590950194506020929092019160010161141c565b5050505050565b610180810161147e82876110ea565b61148b6040830186611417565b61149860c08301856110ea565b61010082018360005b60048110156114c05781518352602092830192909101906001016114a1565b50505095945050505050565b6000602082840312156114de57600080fd5b81516110e38161122e565b61012081016114f882876110ea565b6115056040830186611417565b61151260c08301856110ea565b61010082018360005b60018110156114c057815183526020928301929091019060010161151b56fea264697066735822122094b9fc6f5280a2643a09b25b9ac030ecdf6d78ca975e0c3f1ee908113c09990a64736f6c634300080b0033",
  "linkReferences": {},
  "deployedLinkReferences": {}
}