{
  "_format": "hh-sol-artifact-1",
  "contractName": "BattleshipGame",
  "sourceName": "contracts/BattleshipGame.sol",
  "abi": [
    {
      "inputs": [
        {
          "internalType": "address",
          "name": "_forwarder",
          "type": "address"
        },
        {
          "internalType": "address",
          "name": "_bv",
          "type": "address"
        },
        {
          "internalType": "address",
          "name": "_sv",
          "type": "address"
        },
        {
          "internalType": "address",
          "name": "_ticket",
          "type": "address"
        }
      ],
      "stateMutability": "nonpayable",
      "type": "constructor"
    },
    {
      "anonymous": false,
      "inputs": [
        {
          "indexed": false,
          "internalType": "uint256",
          "name": "_amount",
          "type": "uint256"
        }
      ],
      "name": "Collected",
      "type": "event"
    },
    {
      "anonymous": false,
      "inputs": [
        {
          "indexed": false,
          "internalType": "uint256",
          "name": "_nonce",
          "type": "uint256"
        }
      ],
      "name": "Joined",
      "type": "event"
    },
    {
      "anonymous": false,
      "inputs": [
        {
          "indexed": false,
          "internalType": "uint256",
          "name": "_game",
          "type": "uint256"
        },
        {
          "indexed": false,
          "internalType": "uint256",
          "name": "_turn",
          "type": "uint256"
        },
        {
          "indexed": false,
          "internalType": "bool",
          "name": "_hit",
          "type": "bool"
        }
      ],
      "name": "Shot",
      "type": "event"
    },
    {
      "anonymous": false,
      "inputs": [
        {
          "indexed": false,
          "internalType": "uint256",
          "name": "_nonce",
          "type": "uint256"
        }
      ],
      "name": "Started",
      "type": "event"
    },
    {
      "anonymous": false,
      "inputs": [
        {
          "indexed": false,
          "internalType": "address",
          "name": "_winner",
          "type": "address"
        },
        {
          "indexed": false,
          "internalType": "uint256",
          "name": "_nonce",
          "type": "uint256"
        }
      ],
      "name": "Won",
      "type": "event"
    },
    {
      "inputs": [
        {
          "internalType": "address",
          "name": "_to",
          "type": "address"
        }
      ],
      "name": "collectProceeds",
      "outputs": [],
      "stateMutability": "nonpayable",
      "type": "function"
    },
    {
      "inputs": [
        {
          "internalType": "uint256",
          "name": "_game",
          "type": "uint256"
        },
        {
          "internalType": "uint256[2]",
          "name": "_shot",
          "type": "uint256[2]"
        }
      ],
      "name": "firstTurn",
      "outputs": [],
      "stateMutability": "nonpayable",
      "type": "function"
    },
    {
      "inputs": [
        {
          "internalType": "uint256",
          "name": "_game",
          "type": "uint256"
        }
      ],
      "name": "gameState",
      "outputs": [
        {
          "internalType": "address[2]",
          "name": "_participants",
          "type": "address[2]"
        },
        {
          "internalType": "uint256[2]",
          "name": "_boards",
          "type": "uint256[2]"
        },
        {
          "internalType": "uint256",
          "name": "_turnNonce",
          "type": "uint256"
        },
        {
          "internalType": "uint256[2]",
          "name": "_hitNonce",
          "type": "uint256[2]"
        },
        {
          "internalType": "address",
          "name": "_winner",
          "type": "address"
        }
      ],
      "stateMutability": "view",
      "type": "function"
    },
    {
      "inputs": [
        {
          "internalType": "uint256",
          "name": "",
          "type": "uint256"
        }
      ],
      "name": "games",
      "outputs": [
        {
          "internalType": "uint256",
          "name": "nonce",
          "type": "uint256"
        },
        {
          "internalType": "address",
          "name": "winner",
          "type": "address"
        }
      ],
      "stateMutability": "view",
      "type": "function"
    },
    {
      "inputs": [
        {
          "internalType": "address",
          "name": "forwarder",
          "type": "address"
        }
      ],
      "name": "isTrustedForwarder",
      "outputs": [
        {
          "internalType": "bool",
          "name": "",
          "type": "bool"
        }
      ],
      "stateMutability": "view",
      "type": "function"
    },
    {
      "inputs": [
        {
          "internalType": "uint256",
          "name": "_game",
          "type": "uint256"
        },
        {
          "internalType": "uint256",
          "name": "_boardHash",
          "type": "uint256"
        },
        {
          "internalType": "uint256[2]",
          "name": "a",
          "type": "uint256[2]"
        },
        {
          "internalType": "uint256[2]",
          "name": "b_0",
          "type": "uint256[2]"
        },
        {
          "internalType": "uint256[2]",
          "name": "b_1",
          "type": "uint256[2]"
        },
        {
          "internalType": "uint256[2]",
          "name": "c",
          "type": "uint256[2]"
        }
      ],
      "name": "joinGame",
      "outputs": [],
      "stateMutability": "nonpayable",
      "type": "function"
    },
    {
      "inputs": [
        {
          "internalType": "uint256",
          "name": "_boardHash",
          "type": "uint256"
        },
        {
          "internalType": "uint256[2]",
          "name": "a",
          "type": "uint256[2]"
        },
        {
          "internalType": "uint256[2]",
          "name": "b_0",
          "type": "uint256[2]"
        },
        {
          "internalType": "uint256[2]",
          "name": "b_1",
          "type": "uint256[2]"
        },
        {
          "internalType": "uint256[2]",
          "name": "c",
          "type": "uint256[2]"
        }
      ],
      "name": "newGame",
      "outputs": [],
      "stateMutability": "nonpayable",
      "type": "function"
    },
    {
      "inputs": [
        {
          "internalType": "address",
          "name": "",
          "type": "address"
        }
      ],
      "name": "playing",
      "outputs": [
        {
          "internalType": "uint256",
          "name": "",
          "type": "uint256"
        }
      ],
      "stateMutability": "view",
      "type": "function"
    },
    {
      "inputs": [
        {
          "internalType": "uint256",
          "name": "_game",
          "type": "uint256"
        },
        {
          "internalType": "bool",
          "name": "_hit",
          "type": "bool"
        },
        {
          "internalType": "uint256[2]",
          "name": "_next",
          "type": "uint256[2]"
        },
        {
          "internalType": "uint256[2]",
          "name": "a",
          "type": "uint256[2]"
        },
        {
          "internalType": "uint256[2]",
          "name": "b_0",
          "type": "uint256[2]"
        },
        {
          "internalType": "uint256[2]",
          "name": "b_1",
          "type": "uint256[2]"
        },
        {
          "internalType": "uint256[2]",
          "name": "c",
          "type": "uint256[2]"
        }
      ],
      "name": "turn",
      "outputs": [],
      "stateMutability": "nonpayable",
      "type": "function"
    }
  ],
  "bytecode": "0x60a06040523480156200001157600080fd5b5060405162001962380380620019628339810160408190526200003491620000a6565b6001600160a01b03938416608052606980549385166001600160a01b0319948516179055606a805492851692841692909217909155606b80549190931690821617909155606680549091163317905562000103565b80516001600160a01b0381168114620000a157600080fd5b919050565b60008060008060808587031215620000bd57600080fd5b620000c88562000089565b9350620000d86020860162000089565b9250620000e86040860162000089565b9150620000f86060860162000089565b905092959194509250565b6080516118436200011f600039600061016401526118436000f3fe608060405234801561001057600080fd5b50600436106100935760003560e01c8063572b6c0511610066578063572b6c05146101545780635949202a146101a457806388ae582d146101b7578063a784446e146101ca578063cb0fc6d5146101dd57600080fd5b8063117a5b90146100985780634357331a146100ed5780634ac0b22f146101025780634e0e1a3e14610130575b600080fd5b6100cb6100a636600461135b565b606760205260009081526040902060048101546009909101546001600160a01b031682565b604080519283526001600160a01b039091166020830152015b60405180910390f35b6101006100fb366004611374565b6101f0565b005b610122610110366004611374565b60686020526000908152604090205481565b6040519081526020016100e4565b61014361013e36600461135b565b61035f565b6040516100e49594939291906113cd565b610194610162366004611374565b7f00000000000000000000000000000000000000000000000000000000000000006001600160a01b0390811691161490565b60405190151581526020016100e4565b6101006101b23660046114bb565b610469565b6101006101c53660046114f9565b610630565b6101006101d8366004611582565b610ace565b6101006101eb3660046115ee565b610e59565b6066546001600160a01b0316331461023b5760405162461bcd60e51b815260206004820152600960248201526810a7b832b930ba37b960b91b60448201526064015b60405180910390fd5b606b546040516370a0823160e01b81523060048201526000916001600160a01b0316906370a0823190602401602060405180830381865afa158015610284573d6000803e3d6000fd5b505050506040513d601f19601f820116820180604052508101906102a89190611651565b90507f278111f058fcc15883749957935fb9630ea32a108dd40081364d762353441ccb816040516102db91815260200190565b60405180910390a1606b5460405163a9059cbb60e01b81526001600160a01b038481166004830152602482018490529091169063a9059cbb906044016020604051808303816000875af1158015610336573d6000803e3d6000fd5b505050506040513d601f19601f8201168201806040525081019061035a919061166a565b505050565b6103676112ea565b61036f6112ea565b60006103796112ea565b6000858152606760205260408082208151808301928390529160029082845b81546001600160a01b03168152600190910190602001808311610398575050506000898152606760205260409081902081518083019283905294995060029081019350915082845b8154815260200190600101908083116103e057505050600089815260676020526040908190206004810154825180840193849052959950975060070192506002915082845b8154815260200190600101908083116104255750505060009889525050606760205260409096206009015494969395929492936001600160a01b0390931692915050565b33600090815260686020526040902054829081146104b45760405162461bcd60e51b815260206004820152600860248201526721506c6179696e6760c01b6044820152606401610232565b6000818152606760205260409020600901546001600160a01b0316156105085760405162461bcd60e51b815260206004820152600960248201526821506c617961626c6560b81b6044820152606401610232565b60008181526067602052604081206004015461052690600290611687565b1561054b576000828152606760205260409020600101546001600160a01b0316610564565b6000828152606760205260409020546001600160a01b03165b9050336001600160a01b038216146105a75760405162461bcd60e51b81526004016102329060208082526004908201526337b832b960e11b604082015260600190565b60008481526067602052604090206004810154156105f05760405162461bcd60e51b8152602060048201526006602482015265215475726e3160d01b6044820152606401610232565b60048101546000908152600582016020526040902061061190856002611308565b50600481018054906000610624836116d5565b91905055505050505050565b336000908152606860205260409020548790811461067b5760405162461bcd60e51b815260206004820152600860248201526721506c6179696e6760c01b6044820152606401610232565b6000818152606760205260409020600901546001600160a01b0316156106cf5760405162461bcd60e51b815260206004820152600960248201526821506c617961626c6560b81b6044820152606401610232565b6000818152606760205260408120600401546106ed90600290611687565b15610712576000828152606760205260409020600101546001600160a01b031661072b565b6000828152606760205260409020546001600160a01b03165b9050336001600160a01b0382161461076e5760405162461bcd60e51b81526004016102329060208082526004908201526337b832b960e11b604082015260600190565b600089815260676020526040902060048101546107b65760405162461bcd60e51b815260206004820152600660248201526505475726e3d360d41b6044820152606401610232565b600081600201600283600401546107cd9190611687565b600281106107dd576107dd6116a9565b015490506000826005016000600185600401546107fa91906116f0565b8152602081019190915260409081016000208151808301928390529160029082845b81548152602001906001019080831161081c575050505050905060008b9050606a60009054906101000a90046001600160a01b03166001600160a01b0316635fe8c13b8b60405180604001604052808d81526020018c8152508a60405180608001604052808981526020018860006002811061089a5761089a6116a9565b60200201518152602001886001600281106108b7576108b76116a9565b60200201518152602001878152506040518563ffffffff1660e01b81526004016108e4949392919061175f565b602060405180830381865afa158015610901573d6000803e3d6000fd5b505050506040513d601f19601f82011682018060405250810190610925919061166a565b6109665760405162461bcd60e51b815260206004820152601260248201527124b73b30b634b2103a3ab93710383937b7b360711b6044820152606401610232565b8b8460060160006001876004015461097e91906116f0565b81526020810191909152604001600020805460ff19169115159190911790558b156109e957836007016002600186600401546109ba91906116f0565b6109c49190611687565b600281106109d4576109d46116a9565b0180549060006109e3836116d5565b91905055505b7f103fd4c9743a2c062dba39d5f54b05da38dd70c537e03befe80a401dd7f33f638d60018660040154610a1c91906116f0565b6040805192835260208301919091528e15159082015260600160405180910390a1601184600701600260018760040154610a5691906116f0565b610a609190611687565b60028110610a7057610a706116a9565b015410610a8557610a808d61113e565b610abf565b600484015460009081526005850160205260409020610aa6908c6002611308565b50600484018054906000610ab9836116d5565b91905055505b50505050505050505050505050565b606b54604051636eb1769f60e11b8152336004820152306024820152670de0b6b3a7640000916001600160a01b03169063dd62ed3e90604401602060405180830381865afa158015610b24573d6000803e3d6000fd5b505050506040513d601f19601f82011682018060405250810190610b489190611651565b1015610b815760405162461bcd60e51b8152602060048201526008602482015267215469636b65747360c01b6044820152606401610232565b3360009081526068602052604090205415610bca5760405162461bcd60e51b81526020600482015260096024820152681499595b9d1c985b9d60ba1b6044820152606401610232565b858015801590610bdc57506065548111155b610c185760405162461bcd60e51b815260206004820152600d60248201526c6f75742d6f662d626f756e647360981b6044820152606401610232565b6000818152606760205260409020546001600160a01b031615801590610c5657506000818152606760205260408120600101546001600160a01b0316145b610c8a5760405162461bcd60e51b815260206004820152600560248201526410a7b832b760d91b6044820152606401610232565b60695460408051808201825286815260208082018790528251908101835289815291516343753b4d60e01b81526001600160a01b03909316926343753b4d92610cdb928a92909188916004016117bc565b602060405180830381865afa158015610cf8573d6000803e3d6000fd5b505050506040513d601f19601f82011682018060405250810190610d1c919061166a565b610d605760405162461bcd60e51b8152602060048201526015602482015274496e76616c696420426f61726420436f6e6669672160581b6044820152606401610232565b606b546040516323b872dd60e01b8152336004820152306024820152670de0b6b3a764000060448201526001600160a01b03909116906323b872dd906064016020604051808303816000875af1158015610dbe573d6000803e3d6000fd5b505050506040513d601f19601f82011682018060405250810190610de2919061166a565b5060008781526067602090815260408083206001810180546001600160a01b0319163390811790915560039091018a90558352606882529182902089905590518881527f92c1fbcd315b6186165565582753b586e3d562197f0add054436fc725d866b65910160405180910390a150505050505050565b606b54604051636eb1769f60e11b8152336004820152306024820152670de0b6b3a7640000916001600160a01b03169063dd62ed3e90604401602060405180830381865afa158015610eaf573d6000803e3d6000fd5b505050506040513d601f19601f82011682018060405250810190610ed39190611651565b1015610f0c5760405162461bcd60e51b8152602060048201526008602482015267215469636b65747360c01b6044820152606401610232565b3360009081526068602052604090205415610f555760405162461bcd60e51b81526020600482015260096024820152681499595b9d1c985b9d60ba1b6044820152606401610232565b60695460408051808201825285815260208082018690528251908101835288815291516343753b4d60e01b81526001600160a01b03909316926343753b4d92610fa6928992909187916004016117bc565b602060405180830381865afa158015610fc3573d6000803e3d6000fd5b505050506040513d601f19601f82011682018060405250810190610fe7919061166a565b61102b5760405162461bcd60e51b8152602060048201526015602482015274496e76616c696420426f61726420436f6e6669672160581b6044820152606401610232565b606b546040516323b872dd60e01b8152336004820152306024820152670de0b6b3a764000060448201526001600160a01b03909116906323b872dd906064016020604051808303816000875af1158015611089573d6000803e3d6000fd5b505050506040513d601f19601f820116820180604052508101906110ad919061166a565b50606580549060006110be836116d5565b909155505060658054600090815260676020908152604080832080546001600160a01b03191633908117909155845484528184206002018a90559354938352606882529182902083905590519182527e6e0c97de781a7389d44ba8fd35d1467cabb17ed04d038d166d34ab819213f3910160405180910390a15050505050565b6000818152606760205260409020600781015460111480611163575060088101546011145b6111975760405162461bcd60e51b815260206004820152600560248201526410a7bb32b960d91b6044820152606401610232565b60098101546001600160a01b0316156111db5760405162461bcd60e51b81526004016102329060208082526004908201526327bb32b960e11b604082015260600190565b60078101546011146111fa5780600101546001600160a01b0316611206565b80546001600160a01b03165b6009820180546001600160a01b0319166001600160a01b03928316908117909155606b5460405163a9059cbb60e01b81526004810192909252671b0fcaab2003000060248301529091169063a9059cbb906044016020604051808303816000875af1158015611279573d6000803e3d6000fd5b505050506040513d601f19601f8201168201806040525081019061129d919061166a565b506009810154604080516001600160a01b039092168252602082018490527f8b01f9dd0400d6a1e84369a5fb8f6033934856ffa8ebadd707dca302ab551695910160405180910390a15050565b60405180604001604052806002906020820280368337509192915050565b8260028101928215611336579160200282015b8281111561133657825182559160200191906001019061131b565b50611342929150611346565b5090565b5b808211156113425760008155600101611347565b60006020828403121561136d57600080fd5b5035919050565b60006020828403121561138657600080fd5b81356001600160a01b038116811461139d57600080fd5b9392505050565b8060005b60028110156113c75781518452602093840193909101906001016113a8565b50505050565b6101008101818760005b60028110156113ff5781516001600160a01b03168352602092830192909101906001016113d7565b50505061140f60408301876113a4565b84608083015261142260a08301856113a4565b6001600160a01b039290921660e09190910152949350505050565b600082601f83011261144e57600080fd5b6040516040810181811067ffffffffffffffff8211171561147f57634e487b7160e01b600052604160045260246000fd5b806040525080604084018581111561149657600080fd5b845b818110156114b0578035835260209283019201611498565b509195945050505050565b600080606083850312156114ce57600080fd5b823591506114df846020850161143d565b90509250929050565b80151581146114f657600080fd5b50565b6000806000806000806000610180888a03121561151557600080fd5b873596506020880135611527816114e8565b95506115368960408a0161143d565b94506115458960808a0161143d565b93506115548960c08a0161143d565b9250611564896101008a0161143d565b9150611574896101408a0161143d565b905092959891949750929550565b600080600080600080610140878903121561159c57600080fd5b86359550602087013594506115b4886040890161143d565b93506115c3886080890161143d565b92506115d28860c0890161143d565b91506115e288610100890161143d565b90509295509295509295565b6000806000806000610120868803121561160757600080fd5b85359450611618876020880161143d565b9350611627876060880161143d565b92506116368760a0880161143d565b91506116458760e0880161143d565b90509295509295909350565b60006020828403121561166357600080fd5b5051919050565b60006020828403121561167c57600080fd5b815161139d816114e8565b6000826116a457634e487b7160e01b600052601260045260246000fd5b500690565b634e487b7160e01b600052603260045260246000fd5b634e487b7160e01b600052601160045260246000fd5b60006000198214156116e9576116e96116bf565b5060010190565b600082821015611702576117026116bf565b500390565b806000805b600280821061171b5750611758565b835186845b8381101561173e578251825260209283019290910190600101611720565b50505060409590950194506020929092019160010161170c565b5050505050565b610180810161176e82876113a4565b61177b6040830186611707565b61178860c08301856113a4565b61010082018360005b60048110156117b0578151835260209283019290910190600101611791565b50505095945050505050565b61012081016117cb82876113a4565b6117d86040830186611707565b6117e560c08301856113a4565b61010082018360005b60018110156117b05781518352602092830192909101906001016117ee56fea2646970667358221220f3e2ba37168398d95018bcd3fb8d5cda15692ef89edf9118ad92f678c650ddce64736f6c634300080b0033",
  "linkReferences": {},
  "deployedLinkReferences": {}
}