{
  "_format": "hh-sol-artifact-1",
  "contractName": "BattleshipGame",
  "sourceName": "contracts/BattleshipGame.sol",
  "abi": [
    {
      "inputs": [
        {
          "internalType": "address",
          "name": "_forwarder",
          "type": "address"
        },
        {
          "internalType": "address",
          "name": "_bv",
          "type": "address"
        },
        {
          "internalType": "address",
          "name": "_sv",
          "type": "address"
        }
      ],
      "stateMutability": "nonpayable",
      "type": "constructor"
    },
    {
      "anonymous": false,
      "inputs": [
        {
          "indexed": false,
          "internalType": "uint256",
          "name": "_nonce",
          "type": "uint256"
        },
        {
          "indexed": false,
          "internalType": "address",
          "name": "_by",
          "type": "address"
        }
      ],
      "name": "Joined",
      "type": "event"
    },
    {
      "anonymous": false,
      "inputs": [
        {
          "indexed": false,
          "internalType": "bool",
          "name": "hit",
          "type": "bool"
        },
        {
          "indexed": false,
          "internalType": "uint256",
          "name": "_game",
          "type": "uint256"
        }
      ],
      "name": "Report",
      "type": "event"
    },
    {
      "anonymous": false,
      "inputs": [
        {
          "indexed": false,
          "internalType": "uint8",
          "name": "_x",
          "type": "uint8"
        },
        {
          "indexed": false,
          "internalType": "uint8",
          "name": "_y",
          "type": "uint8"
        },
        {
          "indexed": false,
          "internalType": "uint256",
          "name": "_game",
          "type": "uint256"
        }
      ],
      "name": "Shot",
      "type": "event"
    },
    {
      "anonymous": false,
      "inputs": [
        {
          "indexed": false,
          "internalType": "uint256",
          "name": "_nonce",
          "type": "uint256"
        },
        {
          "indexed": false,
          "internalType": "address",
          "name": "_by",
          "type": "address"
        }
      ],
      "name": "Started",
      "type": "event"
    },
    {
      "anonymous": false,
      "inputs": [
        {
          "indexed": false,
          "internalType": "address",
          "name": "_winner",
          "type": "address"
        },
        {
          "indexed": false,
          "internalType": "uint256",
          "name": "_nonce",
          "type": "uint256"
        },
        {
          "indexed": false,
          "internalType": "address",
          "name": "_by",
          "type": "address"
        }
      ],
      "name": "Won",
      "type": "event"
    },
    {
      "inputs": [
        {
          "internalType": "uint256",
          "name": "_game",
          "type": "uint256"
        },
        {
          "internalType": "uint256[2]",
          "name": "_shot",
          "type": "uint256[2]"
        }
      ],
      "name": "firstTurn",
      "outputs": [],
      "stateMutability": "nonpayable",
      "type": "function"
    },
    {
      "inputs": [],
      "name": "gameIndex",
      "outputs": [
        {
          "internalType": "uint256",
          "name": "",
          "type": "uint256"
        }
      ],
      "stateMutability": "view",
      "type": "function"
    },
    {
      "inputs": [
        {
          "internalType": "uint256",
          "name": "_game",
          "type": "uint256"
        }
      ],
      "name": "gameState",
      "outputs": [
        {
          "internalType": "address[2]",
          "name": "_participants",
          "type": "address[2]"
        },
        {
          "internalType": "uint256[2]",
          "name": "_boards",
          "type": "uint256[2]"
        },
        {
          "internalType": "uint256",
          "name": "_turnNonce",
          "type": "uint256"
        },
        {
          "internalType": "uint256[2]",
          "name": "_hitNonce",
          "type": "uint256[2]"
        },
        {
          "internalType": "address",
          "name": "_winner",
          "type": "address"
        }
      ],
      "stateMutability": "view",
      "type": "function"
    },
    {
      "inputs": [
        {
          "internalType": "uint256",
          "name": "",
          "type": "uint256"
        }
      ],
      "name": "games",
      "outputs": [
        {
          "internalType": "uint256",
          "name": "nonce",
          "type": "uint256"
        },
        {
          "internalType": "address",
          "name": "winner",
          "type": "address"
        }
      ],
      "stateMutability": "view",
      "type": "function"
    },
    {
      "inputs": [
        {
          "internalType": "address",
          "name": "forwarder",
          "type": "address"
        }
      ],
      "name": "isTrustedForwarder",
      "outputs": [
        {
          "internalType": "bool",
          "name": "",
          "type": "bool"
        }
      ],
      "stateMutability": "view",
      "type": "function"
    },
    {
      "inputs": [
        {
          "internalType": "uint256",
          "name": "_game",
          "type": "uint256"
        },
        {
          "internalType": "uint256",
          "name": "_boardHash",
          "type": "uint256"
        },
        {
          "internalType": "uint256[2]",
          "name": "a",
          "type": "uint256[2]"
        },
        {
          "internalType": "uint256[2]",
          "name": "b_0",
          "type": "uint256[2]"
        },
        {
          "internalType": "uint256[2]",
          "name": "b_1",
          "type": "uint256[2]"
        },
        {
          "internalType": "uint256[2]",
          "name": "c",
          "type": "uint256[2]"
        }
      ],
      "name": "joinGame",
      "outputs": [],
      "stateMutability": "nonpayable",
      "type": "function"
    },
    {
      "inputs": [
        {
          "internalType": "uint256",
          "name": "_boardHash",
          "type": "uint256"
        },
        {
          "internalType": "uint256[2]",
          "name": "a",
          "type": "uint256[2]"
        },
        {
          "internalType": "uint256[2]",
          "name": "b_0",
          "type": "uint256[2]"
        },
        {
          "internalType": "uint256[2]",
          "name": "b_1",
          "type": "uint256[2]"
        },
        {
          "internalType": "uint256[2]",
          "name": "c",
          "type": "uint256[2]"
        }
      ],
      "name": "newGame",
      "outputs": [],
      "stateMutability": "nonpayable",
      "type": "function"
    },
    {
      "inputs": [
        {
          "internalType": "address",
          "name": "",
          "type": "address"
        }
      ],
      "name": "playing",
      "outputs": [
        {
          "internalType": "uint256",
          "name": "",
          "type": "uint256"
        }
      ],
      "stateMutability": "view",
      "type": "function"
    },
    {
      "inputs": [
        {
          "internalType": "uint256",
          "name": "_game",
          "type": "uint256"
        },
        {
          "internalType": "bool",
          "name": "_hit",
          "type": "bool"
        },
        {
          "internalType": "uint256[2]",
          "name": "_next",
          "type": "uint256[2]"
        },
        {
          "internalType": "uint256[2]",
          "name": "a",
          "type": "uint256[2]"
        },
        {
          "internalType": "uint256[2]",
          "name": "b_0",
          "type": "uint256[2]"
        },
        {
          "internalType": "uint256[2]",
          "name": "b_1",
          "type": "uint256[2]"
        },
        {
          "internalType": "uint256[2]",
          "name": "c",
          "type": "uint256[2]"
        }
      ],
      "name": "turn",
      "outputs": [],
      "stateMutability": "nonpayable",
      "type": "function"
    }
  ],
  "bytecode": "0x608060405234801561001057600080fd5b5060405161123a38038061123a83398101604081905261002f9161008d565b600080546001600160a01b039485166001600160a01b0319918216179091556004805493851693821693909317909255600580549190931691161790556100d0565b80516001600160a01b038116811461008857600080fd5b919050565b6000806000606084860312156100a257600080fd5b6100ab84610071565b92506100b960208501610071565b91506100c760408501610071565b90509250925092565b61115b806100df6000396000f3fe608060405234801561001057600080fd5b50600436106100935760003560e01c8063572b6c0511610066578063572b6c05146101485780635949202a1461017a57806388ae582d1461018f578063a784446e146101a2578063cb0fc6d5146101b557600080fd5b8063117a5b90146100985780634ac0b22f146100ed5780634e0e1a3e1461011b5780635654a3411461013f575b600080fd5b6100cb6100a6366004610dbb565b600260205260009081526040902060048101546009909101546001600160a01b031682565b604080519283526001600160a01b039091166020830152015b60405180910390f35b61010d6100fb366004610dd4565b60036020526000908152604090205481565b6040519081526020016100e4565b61012e610129366004610dbb565b6101c8565b6040516100e4959493929190610e2d565b61010d60015481565b61016a610156366004610dd4565b6000546001600160a01b0391821691161490565b60405190151581526020016100e4565b61018d610188366004610f1b565b6102d2565b005b61018d61019d366004610f48565b61051a565b61018d6101b0366004610fd6565b6108ef565b61018d6101c3366004611042565b610ac7565b6101d0610d4a565b6101d8610d4a565b60006101e2610d4a565b600085815260026020819052604080832081518083019283905292909182845b81546001600160a01b0316815260019091019060200180831161020257505050600089815260026020819052604091829020825180840193849052959a5081019350915082845b815481526020019060010190808311610249575050506000898152600260208190526040918290206004810154835180850194859052969a5098506007019350915082845b81548152602001906001019080831161028e5750505060009889525050600260205260409096206009015494969395929492936001600160a01b0390931692915050565b8180600360006102e0610bf5565b6001600160a01b03166001600160a01b03168152602001908152602001600020541461033e5760405162461bcd60e51b815260206004820152600860248201526721506c6179696e6760c01b60448201526064015b60405180910390fd5b6000818152600260205260409020600901546001600160a01b0316156103925760405162461bcd60e51b815260206004820152600960248201526821506c617961626c6560b81b6044820152606401610335565b60008181526002602081905260408220600401546103b091906110a5565b156103d5576000828152600260205260409020600101546001600160a01b03166103ee565b6000828152600260205260409020546001600160a01b03165b9050806001600160a01b0316610402610bf5565b6001600160a01b0316146104405760405162461bcd60e51b815260206004820152600560248201526410aa3ab93760d91b6044820152606401610335565b60008481526002602052604090206004810154156104895760405162461bcd60e51b8152602060048201526006602482015265215475726e3160d01b6044820152606401610335565b6004810154600090815260058201602052604090206104aa90856002610d68565b506004810180549060006104bd836110f3565b909155505083516020808601516040805160ff9485168152939091169183019190915281018690527f79f9773cbc69b790ff553c4b225dafda93079a9bfe2271375d36ce7d812292c2906060015b60405180910390a15050505050565b868060036000610528610bf5565b6001600160a01b03166001600160a01b0316815260200190815260200160002054146105815760405162461bcd60e51b815260206004820152600860248201526721506c6179696e6760c01b6044820152606401610335565b6000818152600260205260409020600901546001600160a01b0316156105d55760405162461bcd60e51b815260206004820152600960248201526821506c617961626c6560b81b6044820152606401610335565b60008181526002602081905260408220600401546105f391906110a5565b15610618576000828152600260205260409020600101546001600160a01b0316610631565b6000828152600260205260409020546001600160a01b03165b9050806001600160a01b0316610645610bf5565b6001600160a01b0316146106835760405162461bcd60e51b815260206004820152600560248201526410aa3ab93760d91b6044820152606401610335565b600089815260026020526040902060048101546106cb5760405162461bcd60e51b815260206004820152600660248201526505475726e3d360d41b6044820152606401610335565b600081600201600283600401546106e291906110a5565b600281106106f2576106f26110c7565b0154905060008260050160006001856004015461070f919061110e565b8152602081019190915260409081016000208151808301928390529160029082845b815481526020019060010190808311610731575050505050905060008b90508b84600601600060018760040154610768919061110e565b81526020810191909152604001600020805460ff19169115159190911790558b156107d357836007016002600186600401546107a4919061110e565b6107ae91906110a5565b600281106107be576107be6110c7565b0180549060006107cd836110f3565b91905055505b604080518d15158152602081018f90527f683ddd84855a0e0acca1cca44218f8166de5bb1f03cc18cd1c8d0e4dbf3ac06d910160405180910390a1601184600701600260018760040154610827919061110e565b61083191906110a5565b60028110610841576108416110c7565b015410610856576108518d610c1b565b6108e0565b600484015460009081526005850160205260409020610877908c6002610d68565b5060048401805490600061088a836110f3565b90915550508a516020808d01516040805160ff9485168152939091169183019190915281018e90527f79f9773cbc69b790ff553c4b225dafda93079a9bfe2271375d36ce7d812292c29060600160405180910390a15b50505050505050505050505050565b600360006108fb610bf5565b6001600160a01b031681526020810191909152604001600020541561094e5760405162461bcd60e51b81526020600482015260096024820152681499595b9d1c985b9d60ba1b6044820152606401610335565b85801580159061096057506001548111155b61099c5760405162461bcd60e51b815260206004820152600d60248201526c6f75742d6f662d626f756e647360981b6044820152606401610335565b6000818152600260205260409020546001600160a01b0316158015906109da57506000818152600260205260408120600101546001600160a01b0316145b610a0e5760405162461bcd60e51b815260206004820152600560248201526410a7b832b760d91b6044820152606401610335565b610a16610bf5565b60008881526002602052604081206001810180546001600160a01b0319166001600160a01b0394909416939093179092556003918201889055889190610a5a610bf5565b6001600160a01b031681526020810191909152604001600020557fc0081eeafa0d002abcd7d58d84b6e688d1526b9c3d915a282212ba08c49a17a787610a9e610bf5565b604080519283526001600160a01b0390911660208301520160405180910390a150505050505050565b60036000610ad3610bf5565b6001600160a01b0316815260208101919091526040016000205415610b265760405162461bcd60e51b81526020600482015260096024820152681499595b9d1c985b9d60ba1b6044820152606401610335565b60018054906000610b36836110f3565b9190505550610b43610bf5565b60018054600090815260026020819052604080832080546001600160a01b0319166001600160a01b039690961695909517909455825482529281209092018790555490600390610b91610bf5565b6001600160a01b031681526020810191909152604001600020556001547fcb88c87e28a0e0b68deef72d3d3536c607260b8c80944e6117a896f855eed81f90610bd8610bf5565b604080519283526001600160a01b0390911660208301520161050b565b600080546001600160a01b0316331415610c16575060131936013560601c90565b503390565b6000818152600260205260409020600781015460111480610c40575060088101546011145b610c745760405162461bcd60e51b815260206004820152600560248201526410a7bb32b960d91b6044820152606401610335565b60098101546001600160a01b031615610cb85760405162461bcd60e51b81526004016103359060208082526004908201526327bb32b960e11b604082015260600190565b6007810154601114610cd75780600101546001600160a01b0316610ce3565b80546001600160a01b03165b6009820180546001600160a01b0319166001600160a01b039290921691821790556040805182815260208101859052908101919091527f6bcf8a6dacd2be65250e8000b3b3ca55cfc8429fd69e2bf4a34a23fb919226409060600160405180910390a15050565b60405180604001604052806002906020820280368337509192915050565b8260028101928215610d96579160200282015b82811115610d96578251825591602001919060010190610d7b565b50610da2929150610da6565b5090565b5b80821115610da25760008155600101610da7565b600060208284031215610dcd57600080fd5b5035919050565b600060208284031215610de657600080fd5b81356001600160a01b0381168114610dfd57600080fd5b9392505050565b8060005b6002811015610e27578151845260209384019390910190600101610e08565b50505050565b6101008101818760005b6002811015610e5f5781516001600160a01b0316835260209283019290910190600101610e37565b505050610e6f6040830187610e04565b846080830152610e8260a0830185610e04565b6001600160a01b039290921660e09190910152949350505050565b600082601f830112610eae57600080fd5b6040516040810181811067ffffffffffffffff82111715610edf57634e487b7160e01b600052604160045260246000fd5b8060405250806040840185811115610ef657600080fd5b845b81811015610f10578035835260209283019201610ef8565b509195945050505050565b60008060608385031215610f2e57600080fd5b82359150610f3f8460208501610e9d565b90509250929050565b6000806000806000806000610180888a031215610f6457600080fd5b8735965060208801358015158114610f7b57600080fd5b9550610f8a8960408a01610e9d565b9450610f998960808a01610e9d565b9350610fa88960c08a01610e9d565b9250610fb8896101008a01610e9d565b9150610fc8896101408a01610e9d565b905092959891949750929550565b6000806000806000806101408789031215610ff057600080fd5b86359550602087013594506110088860408901610e9d565b93506110178860808901610e9d565b92506110268860c08901610e9d565b9150611036886101008901610e9d565b90509295509295509295565b6000806000806000610120868803121561105b57600080fd5b8535945061106c8760208801610e9d565b935061107b8760608801610e9d565b925061108a8760a08801610e9d565b91506110998760e08801610e9d565b90509295509295909350565b6000826110c257634e487b7160e01b600052601260045260246000fd5b500690565b634e487b7160e01b600052603260045260246000fd5b634e487b7160e01b600052601160045260246000fd5b6000600019821415611107576111076110dd565b5060010190565b600082821015611120576111206110dd565b50039056fea2646970667358221220e2a1a5dd83d393b9416e6df07a0535f0469fb1a162fdc07af43382462904153864736f6c634300080b0033",
  "linkReferences": {},
  "deployedLinkReferences": {}
}