{
  "_format": "hh-sol-artifact-1",
  "contractName": "BattleshipGame",
  "sourceName": "contracts/BattleshipGame.sol",
  "abi": [
    {
      "inputs": [
        {
          "internalType": "address",
          "name": "_forwarder",
          "type": "address"
        },
        {
          "internalType": "address",
          "name": "_bv",
          "type": "address"
        },
        {
          "internalType": "address",
          "name": "_sv",
          "type": "address"
        }
      ],
      "stateMutability": "nonpayable",
      "type": "constructor"
    },
    {
      "anonymous": false,
      "inputs": [
        {
          "indexed": false,
          "internalType": "uint256",
          "name": "_nonce",
          "type": "uint256"
        },
        {
          "indexed": false,
          "internalType": "address",
          "name": "_by",
          "type": "address"
        }
      ],
      "name": "Joined",
      "type": "event"
    },
    {
      "anonymous": false,
      "inputs": [
        {
          "indexed": false,
          "internalType": "bool",
          "name": "hit",
          "type": "bool"
        },
        {
          "indexed": false,
          "internalType": "uint256",
          "name": "_game",
          "type": "uint256"
        }
      ],
      "name": "Report",
      "type": "event"
    },
    {
      "anonymous": false,
      "inputs": [
        {
          "indexed": false,
          "internalType": "uint8",
          "name": "_x",
          "type": "uint8"
        },
        {
          "indexed": false,
          "internalType": "uint8",
          "name": "_y",
          "type": "uint8"
        },
        {
          "indexed": false,
          "internalType": "uint256",
          "name": "_game",
          "type": "uint256"
        }
      ],
      "name": "Shot",
      "type": "event"
    },
    {
      "anonymous": false,
      "inputs": [
        {
          "indexed": false,
          "internalType": "uint256",
          "name": "_nonce",
          "type": "uint256"
        },
        {
          "indexed": false,
          "internalType": "address",
          "name": "_by",
          "type": "address"
        }
      ],
      "name": "Started",
      "type": "event"
    },
    {
      "anonymous": false,
      "inputs": [
        {
          "indexed": false,
          "internalType": "address",
          "name": "_winner",
          "type": "address"
        },
        {
          "indexed": false,
          "internalType": "uint256",
          "name": "_nonce",
          "type": "uint256"
        },
        {
          "indexed": false,
          "internalType": "address",
          "name": "_by",
          "type": "address"
        }
      ],
      "name": "Won",
      "type": "event"
    },
    {
      "inputs": [],
      "name": "HIT_MAX",
      "outputs": [
        {
          "internalType": "uint256",
          "name": "",
          "type": "uint256"
        }
      ],
      "stateMutability": "view",
      "type": "function"
    },
    {
      "inputs": [
        {
          "internalType": "uint256",
          "name": "_game",
          "type": "uint256"
        },
        {
          "internalType": "uint256[2]",
          "name": "_shot",
          "type": "uint256[2]"
        }
      ],
      "name": "firstTurn",
      "outputs": [],
      "stateMutability": "nonpayable",
      "type": "function"
    },
    {
      "inputs": [],
      "name": "gameIndex",
      "outputs": [
        {
          "internalType": "uint256",
          "name": "",
          "type": "uint256"
        }
      ],
      "stateMutability": "view",
      "type": "function"
    },
    {
      "inputs": [
        {
          "internalType": "uint256",
          "name": "_game",
          "type": "uint256"
        }
      ],
      "name": "gameState",
      "outputs": [
        {
          "internalType": "address[2]",
          "name": "_participants",
          "type": "address[2]"
        },
        {
          "internalType": "uint256[2]",
          "name": "_boards",
          "type": "uint256[2]"
        },
        {
          "internalType": "uint256",
          "name": "_turnNonce",
          "type": "uint256"
        },
        {
          "internalType": "uint256[2]",
          "name": "_hitNonce",
          "type": "uint256[2]"
        },
        {
          "internalType": "address",
          "name": "_winner",
          "type": "address"
        }
      ],
      "stateMutability": "view",
      "type": "function"
    },
    {
      "inputs": [
        {
          "internalType": "uint256",
          "name": "",
          "type": "uint256"
        }
      ],
      "name": "games",
      "outputs": [
        {
          "internalType": "uint256",
          "name": "nonce",
          "type": "uint256"
        },
        {
          "internalType": "address",
          "name": "winner",
          "type": "address"
        }
      ],
      "stateMutability": "view",
      "type": "function"
    },
    {
      "inputs": [
        {
          "internalType": "address",
          "name": "forwarder",
          "type": "address"
        }
      ],
      "name": "isTrustedForwarder",
      "outputs": [
        {
          "internalType": "bool",
          "name": "",
          "type": "bool"
        }
      ],
      "stateMutability": "view",
      "type": "function"
    },
    {
      "inputs": [
        {
          "internalType": "uint256",
          "name": "_game",
          "type": "uint256"
        },
        {
          "internalType": "uint256",
          "name": "_boardHash",
          "type": "uint256"
        },
        {
          "internalType": "uint256[2]",
          "name": "a",
          "type": "uint256[2]"
        },
        {
          "internalType": "uint256[2]",
          "name": "b_0",
          "type": "uint256[2]"
        },
        {
          "internalType": "uint256[2]",
          "name": "b_1",
          "type": "uint256[2]"
        },
        {
          "internalType": "uint256[2]",
          "name": "c",
          "type": "uint256[2]"
        }
      ],
      "name": "joinGame",
      "outputs": [],
      "stateMutability": "nonpayable",
      "type": "function"
    },
    {
      "inputs": [
        {
          "internalType": "uint256",
          "name": "_boardHash",
          "type": "uint256"
        },
        {
          "internalType": "uint256[2]",
          "name": "a",
          "type": "uint256[2]"
        },
        {
          "internalType": "uint256[2]",
          "name": "b_0",
          "type": "uint256[2]"
        },
        {
          "internalType": "uint256[2]",
          "name": "b_1",
          "type": "uint256[2]"
        },
        {
          "internalType": "uint256[2]",
          "name": "c",
          "type": "uint256[2]"
        }
      ],
      "name": "newGame",
      "outputs": [],
      "stateMutability": "nonpayable",
      "type": "function"
    },
    {
      "inputs": [
        {
          "internalType": "address",
          "name": "",
          "type": "address"
        }
      ],
      "name": "playing",
      "outputs": [
        {
          "internalType": "uint256",
          "name": "",
          "type": "uint256"
        }
      ],
      "stateMutability": "view",
      "type": "function"
    },
    {
      "inputs": [],
      "name": "trustedForwarder",
      "outputs": [
        {
          "internalType": "address",
          "name": "",
          "type": "address"
        }
      ],
      "stateMutability": "view",
      "type": "function"
    },
    {
      "inputs": [
        {
          "internalType": "uint256",
          "name": "_game",
          "type": "uint256"
        },
        {
          "internalType": "bool",
          "name": "_hit",
          "type": "bool"
        },
        {
          "internalType": "uint256[2]",
          "name": "_next",
          "type": "uint256[2]"
        },
        {
          "internalType": "uint256[2]",
          "name": "a",
          "type": "uint256[2]"
        },
        {
          "internalType": "uint256[2]",
          "name": "b_0",
          "type": "uint256[2]"
        },
        {
          "internalType": "uint256[2]",
          "name": "b_1",
          "type": "uint256[2]"
        },
        {
          "internalType": "uint256[2]",
          "name": "c",
          "type": "uint256[2]"
        }
      ],
      "name": "turn",
      "outputs": [],
      "stateMutability": "nonpayable",
      "type": "function"
    }
  ],
  "bytecode": "0x60806040523480156200001157600080fd5b50604051620016a6380380620016a68339810160408190526200003491620000a1565b600080546001600160a01b039485166001600160a01b03199182168117909255600280548216909217909155600580549385169382169390931790925560068054919093169116179055620000eb565b80516001600160a01b03811681146200009c57600080fd5b919050565b600080600060608486031215620000b757600080fd5b620000c28462000084565b9250620000d26020850162000084565b9150620000e26040850162000084565b90509250925092565b6115ab80620000fb6000396000f3fe608060405234801561001057600080fd5b50600436106100a95760003560e01c80635949202a116100715780635949202a146101905780637da0a877146101a557806387047dd3146101d057806388ae582d146101d8578063a784446e146101eb578063cb0fc6d5146101fe57600080fd5b8063117a5b90146100ae5780634ac0b22f146101035780634e0e1a3e146101315780635654a34114610155578063572b6c051461015e575b600080fd5b6100e16100bc3660046110dc565b600360205260009081526040902060048101546009909101546001600160a01b031682565b604080519283526001600160a01b039091166020830152015b60405180910390f35b6101236101113660046110f5565b60046020526000908152604090205481565b6040519081526020016100fa565b61014461013f3660046110dc565b610211565b6040516100fa95949392919061114e565b61012360015481565b61018061016c3660046110f5565b6000546001600160a01b0391821691161490565b60405190151581526020016100fa565b6101a361019e36600461123c565b61031b565b005b6002546101b8906001600160a01b031681565b6040516001600160a01b0390911681526020016100fa565b610123601181565b6101a36101e636600461127a565b610563565b6101a36101f9366004611303565b610a63565b6101a361020c36600461136f565b610d14565b61021961106b565b61022161106b565b600061022b61106b565b6000858152600360205260408082208151808301928390529160029082845b81546001600160a01b0316815260019091019060200180831161024a575050506000898152600360205260409081902081518083019283905294995060029081019350915082845b81548152602001906001019080831161029257505050600089815260036020526040908190206004810154825180840193849052959950975060070192506002915082845b8154815260200190600101908083116102d75750505060009889525050600360205260409096206009015494969395929492936001600160a01b0390931692915050565b818060046000610329610f16565b6001600160a01b03166001600160a01b0316815260200190815260200160002054146103875760405162461bcd60e51b815260206004820152600860248201526721506c6179696e6760c01b60448201526064015b60405180910390fd5b6000818152600360205260409020600901546001600160a01b0316156103db5760405162461bcd60e51b815260206004820152600960248201526821506c617961626c6560b81b604482015260640161037e565b6000818152600360205260408120600401546103f9906002906113d2565b1561041e576000828152600360205260409020600101546001600160a01b0316610437565b6000828152600360205260409020546001600160a01b03165b9050806001600160a01b031661044b610f16565b6001600160a01b0316146104895760405162461bcd60e51b815260206004820152600560248201526410aa3ab93760d91b604482015260640161037e565b60008481526003602052604090206004810154156104d25760405162461bcd60e51b8152602060048201526006602482015265215475726e3160d01b604482015260640161037e565b6004810154600090815260058201602052604090206104f390856002611089565b5060048101805490600061050683611420565b909155505083516020808601516040805160ff9485168152939091169183019190915281018690527f79f9773cbc69b790ff553c4b225dafda93079a9bfe2271375d36ce7d812292c2906060015b60405180910390a15050505050565b868060046000610571610f16565b6001600160a01b03166001600160a01b0316815260200190815260200160002054146105ca5760405162461bcd60e51b815260206004820152600860248201526721506c6179696e6760c01b604482015260640161037e565b6000818152600360205260409020600901546001600160a01b03161561061e5760405162461bcd60e51b815260206004820152600960248201526821506c617961626c6560b81b604482015260640161037e565b60008181526003602052604081206004015461063c906002906113d2565b15610661576000828152600360205260409020600101546001600160a01b031661067a565b6000828152600360205260409020546001600160a01b03165b9050806001600160a01b031661068e610f16565b6001600160a01b0316146106cc5760405162461bcd60e51b815260206004820152600560248201526410aa3ab93760d91b604482015260640161037e565b600089815260036020526040902060048101546107145760405162461bcd60e51b815260206004820152600660248201526505475726e3d360d41b604482015260640161037e565b6000816002016002836004015461072b91906113d2565b6002811061073b5761073b6113f4565b01549050600082600501600060018560040154610758919061143b565b8152602081019190915260409081016000208151808301928390529160029082845b81548152602001906001019080831161077a575050505050905060008b9050600660009054906101000a90046001600160a01b03166001600160a01b0316635fe8c13b8b60405180604001604052808d81526020018c8152508a6040518060800160405280898152602001886000600281106107f8576107f86113f4565b6020020151815260200188600160028110610815576108156113f4565b60200201518152602001878152506040518563ffffffff1660e01b815260040161084294939291906114aa565b602060405180830381865afa15801561085f573d6000803e3d6000fd5b505050506040513d601f19601f820116820180604052508101906108839190611507565b6108c45760405162461bcd60e51b815260206004820152601260248201527124b73b30b634b2103a3ab93710383937b7b360711b604482015260640161037e565b8b846006016000600187600401546108dc919061143b565b81526020810191909152604001600020805460ff19169115159190911790558b156109475783600701600260018660040154610918919061143b565b61092291906113d2565b60028110610932576109326113f4565b01805490600061094183611420565b91905055505b604080518d15158152602081018f90527f683ddd84855a0e0acca1cca44218f8166de5bb1f03cc18cd1c8d0e4dbf3ac06d910160405180910390a160118460070160026001876004015461099b919061143b565b6109a591906113d2565b600281106109b5576109b56113f4565b0154106109ca576109c58d610f3c565b610a54565b6004840154600090815260058501602052604090206109eb908c6002611089565b506004840180549060006109fe83611420565b90915550508a516020808d01516040805160ff9485168152939091169183019190915281018e90527f79f9773cbc69b790ff553c4b225dafda93079a9bfe2271375d36ce7d812292c29060600160405180910390a15b50505050505050505050505050565b60046000610a6f610f16565b6001600160a01b0316815260208101919091526040016000205415610ac25760405162461bcd60e51b81526020600482015260096024820152681499595b9d1c985b9d60ba1b604482015260640161037e565b858015801590610ad457506001548111155b610b105760405162461bcd60e51b815260206004820152600d60248201526c6f75742d6f662d626f756e647360981b604482015260640161037e565b6000818152600360205260409020546001600160a01b031615801590610b4e57506000818152600360205260408120600101546001600160a01b0316145b610b825760405162461bcd60e51b815260206004820152600560248201526410a7b832b760d91b604482015260640161037e565b60055460408051808201825286815260208082018790528251908101835289815291516343753b4d60e01b81526001600160a01b03909316926343753b4d92610bd3928a9290918891600401611524565b602060405180830381865afa158015610bf0573d6000803e3d6000fd5b505050506040513d601f19601f82011682018060405250810190610c149190611507565b610c585760405162461bcd60e51b8152602060048201526015602482015274496e76616c696420426f61726420436f6e6669672160581b604482015260640161037e565b610c60610f16565b600088815260036020819052604082206001810180546001600160a01b0319166001600160a01b039590951694909417909355919091018790558790600490610ca7610f16565b6001600160a01b031681526020810191909152604001600020557fc0081eeafa0d002abcd7d58d84b6e688d1526b9c3d915a282212ba08c49a17a787610ceb610f16565b604080519283526001600160a01b0390911660208301520160405180910390a150505050505050565b60046000610d20610f16565b6001600160a01b0316815260208101919091526040016000205415610d735760405162461bcd60e51b81526020600482015260096024820152681499595b9d1c985b9d60ba1b604482015260640161037e565b60055460408051808201825285815260208082018690528251908101835288815291516343753b4d60e01b81526001600160a01b03909316926343753b4d92610dc492899290918791600401611524565b602060405180830381865afa158015610de1573d6000803e3d6000fd5b505050506040513d601f19601f82011682018060405250810190610e059190611507565b610e495760405162461bcd60e51b8152602060048201526015602482015274496e76616c696420426f61726420436f6e6669672160581b604482015260640161037e565b60018054906000610e5983611420565b9190505550610e66610f16565b6001805460009081526003602052604080822080546001600160a01b0319166001600160a01b039590951694909417909355815481529182206002018790555490600490610eb2610f16565b6001600160a01b031681526020810191909152604001600020556001547fcb88c87e28a0e0b68deef72d3d3536c607260b8c80944e6117a896f855eed81f90610ef9610f16565b604080519283526001600160a01b03909116602083015201610554565b600080546001600160a01b0316331415610f37575060131936013560601c90565b503390565b6000818152600360205260409020600781015460111480610f61575060088101546011145b610f955760405162461bcd60e51b815260206004820152600560248201526410a7bb32b960d91b604482015260640161037e565b60098101546001600160a01b031615610fd95760405162461bcd60e51b815260040161037e9060208082526004908201526327bb32b960e11b604082015260600190565b6007810154601114610ff85780600101546001600160a01b0316611004565b80546001600160a01b03165b6009820180546001600160a01b0319166001600160a01b039290921691821790556040805182815260208101859052908101919091527f6bcf8a6dacd2be65250e8000b3b3ca55cfc8429fd69e2bf4a34a23fb919226409060600160405180910390a15050565b60405180604001604052806002906020820280368337509192915050565b82600281019282156110b7579160200282015b828111156110b757825182559160200191906001019061109c565b506110c39291506110c7565b5090565b5b808211156110c357600081556001016110c8565b6000602082840312156110ee57600080fd5b5035919050565b60006020828403121561110757600080fd5b81356001600160a01b038116811461111e57600080fd5b9392505050565b8060005b6002811015611148578151845260209384019390910190600101611129565b50505050565b6101008101818760005b60028110156111805781516001600160a01b0316835260209283019290910190600101611158565b5050506111906040830187611125565b8460808301526111a360a0830185611125565b6001600160a01b039290921660e09190910152949350505050565b600082601f8301126111cf57600080fd5b6040516040810181811067ffffffffffffffff8211171561120057634e487b7160e01b600052604160045260246000fd5b806040525080604084018581111561121757600080fd5b845b81811015611231578035835260209283019201611219565b509195945050505050565b6000806060838503121561124f57600080fd5b8235915061126084602085016111be565b90509250929050565b801515811461127757600080fd5b50565b6000806000806000806000610180888a03121561129657600080fd5b8735965060208801356112a881611269565b95506112b78960408a016111be565b94506112c68960808a016111be565b93506112d58960c08a016111be565b92506112e5896101008a016111be565b91506112f5896101408a016111be565b905092959891949750929550565b600080600080600080610140878903121561131d57600080fd5b863595506020870135945061133588604089016111be565b935061134488608089016111be565b92506113538860c089016111be565b91506113638861010089016111be565b90509295509295509295565b6000806000806000610120868803121561138857600080fd5b8535945061139987602088016111be565b93506113a887606088016111be565b92506113b78760a088016111be565b91506113c68760e088016111be565b90509295509295909350565b6000826113ef57634e487b7160e01b600052601260045260246000fd5b500690565b634e487b7160e01b600052603260045260246000fd5b634e487b7160e01b600052601160045260246000fd5b60006000198214156114345761143461140a565b5060010190565b60008282101561144d5761144d61140a565b500390565b806000805b600280821061146657506114a3565b835186845b8381101561148957825182526020928301929091019060010161146b565b505050604095909501945060209290920191600101611457565b5050505050565b61018081016114b98287611125565b6114c66040830186611452565b6114d360c0830185611125565b61010082018360005b60048110156114fb5781518352602092830192909101906001016114dc565b50505095945050505050565b60006020828403121561151957600080fd5b815161111e81611269565b61012081016115338287611125565b6115406040830186611452565b61154d60c0830185611125565b61010082018360005b60018110156114fb57815183526020928301929091019060010161155656fea2646970667358221220d6d86c4e6f141027d77ca48b9fc9ac611be285eea6cd47d2bf0fb7e86194cd3d64736f6c634300080b0033",
  "linkReferences": {},
  "deployedLinkReferences": {}
}